:020000040800F2
:1080000038D10020E5830008B9A20008F9A10008D2
:10801000B5A20008599D000825D200080000000004
:108020000000000000000000000000008DBB000800
:10803000659E000800000000E1B3000891BB000845
:10804000FF830008FF830008FF830008FF83000808
:10805000FF830008FF830008FF830008FF830008F8
:10806000FF830008FF830008FF8300085D9D000870
:10807000FF830008FF830008FF830008FF830008D8
:10808000FF830008FF830008FF830008FF830008C8
:10809000FF830008FF830008FF830008FF830008B8
:1080A000FF830008B1C30008FF830008FF830008B6
:1080B000FF830008FF830008FF830008FF83000898
:1080C000FF830008FF830008FF830008FF83000888
:1080D000FF830008FF830008FF830008FF83000878
:1080E000FF830008FF830008FF83000800000000F2
:1080F000FF830008FF83000800000000000000006C
:10810000000000000000000000000000FF830008E5
:10811000FF830008FF830008FF830008FF83000837
:10812000F99D00082D9E0008FF830008FF830008CA
:10813000FF830008000000000000000000000000B5
:10814000000000000000000000000000FF830008A5
:10815000FF830008FF83000800000000FF83000881
:10816000FF830008FF830008FF830008FF830008E7
:10817000FF830008BDA2000800000000000000000E
:1081800000000000FF830008FF830008FF83000851
:1081900000000000FF830008000000000000000055
:1081A00000000000000000000000000000000000CF
:1081B000FF83000800000000FF83000800000000AB
:1081C00000000000000000000000000000000000AF
:1081D000000000000000000000000000FF83000815
:1081E00000F002F800F0D5F814A696E8000CB244AE
:1081F000B344DA4501D100F0CCF8BAE80F000FA67D
:1082000096E83000A5EB040504EB0607AAEB07048B
:10821000A7F101074FEA15154FEA3414A4F1010440
:10822000AC4201D300F0B5F813F0010F18BFFB1AF0
:1082300043F0010300F001F8DBE718475CB30100ED
:108240007CB301000A444FF0000C10F8013B13F01E
:10825000070408BF10F8014B1D1108BF10F8015B9F
:10826000641E05D010F8016B641E01F8016BF9D192
:1082700013F0080F1EBF10F8014BAD1C0C1B09D1E9
:108280006D1E58BF01F801CBFAD505E014F8016B5B
:1082900001F8016B6D1EF9D59142D6D370470000ED
:1082A000704700000023002400250026103A28BF54
:1082B00078C1FBD8520728BF30C148BF0B60704758
:1082C0006E2900F0BF83702900F01385662912F033
:1082D000F884652912F0F584672912F0F284612987
:1082E00012F0F18403681B0A28BF41F0800169295C
:1082F00000F01281642900F00F81752900F00C81D3
:108300006F2900F0A184782900F0DF84E92900F0CA
:108310003B84E42900F03884F52900F03584EF2906
:1083200000F09E84F82900F0DE840368DB0928BF92
:1083300041F08001632901F09181732901F0968158
:10834000E32901F0A181F32901F0A6810020704703
:108350001FB512F0C8FB9DE8030000F083FA00F09F
:1083600006FA01F039FA04000020002111F0DCFFC8
:10837000401C60600020002111F0C0FFE06001F0AF
:10838000E9F901F087FC1FBD10B5002001F0B0F93C
:1083900010BD01F0F3F91146FFF7DAFF0DF09AF87E
:1083A00001F0D0FA03B4FFF7EFFF03BCAFF3008096
:1083B0000B49D1F800C04A685CF8043B10681844C7
:1083C00042F8040B8C4528BFA1F1DC0C8A4228BF7F
:1083D000A1F1DC02C1F800C04A6020F00040704703
:1083E000740300200948804709480047FEE7FEE77C
:1083F000FEE7FEE7FEE7FEE7FEE7FEE7FEE7FEE755
:1084000004480549054A064B7047000095BB000823
:10841000E18100083881002038D1002038A10020F7
:1084200038A10020704770B5064600F0FFF90568D6
:1084300006F10B0020F00704B4429CBF002070BD81
:108440002B466A68BAB11068A04210D304F1080143
:1084500088423CBF5068586007D35168101941608A
:108460001168091B016058601460101D70BD13462F
:108470005268002AE7D12146284600F0DFF900289B
:10848000DED170BD70B50446051F00F0CFF900685D
:10849000002C14BF446870BD002C18BFAC423CBF18
:1084A00020466468F8D301680A18AA4218BF4560DC
:1084B00003D12A6805461144016028684119A14288
:1084C0001CBF6C6070BD61686960216808442860E9
:1084D00070BD00000FB4044910B503AA029800F063
:1084E000E3FA10BC5DF814FB181A00200FB41CB599
:1084F000084B06AA7B4469460090059800F0BBFA39
:1085000004460020694600F0C9FA20461CBC5DF80C
:1085100014FB0000A50500002DE9F04106460024EB
:1085200010687529314616A510D000F0F7F900281B
:1085300002DA404213A507E031688A0701D512A587
:1085400002E0490704D511A5012401E000F0EFF98C
:1085500000210A2206F1240709E0B0FBF2FCB0FB7F
:10856000F2F302FB1C00303078541846491C0028F6
:10857000F3D123462A463046BDE8F04100F009BA5F
:10858000000000002D0000002B0000002000000073
:108590002DE9F05F894604464FF0000ADFF874B118
:1085A000FB44C0F820A02046E1688847002874D02A
:1085B000252806D0D4E901219047206A401C20627A
:1085C000F1E700265F462046E168884720280546F7
:1085D00007DB312D05D2781910F8200C08B10643BD
:1085E000F1E7B00701D526F00406C4F81CA0002767
:1085F000C4F818A02A2D09D0284611F077FE38B308
:1086000004EB8708303DC8F8185019E059F8041BEE
:10861000204604EB87029161E1688847012F0546F7
:1086200018D1E069002820DA26F020061DE0D8F8ED
:10863000180000EB800005EB40003038C8F8180047
:108640002046E1688847054611F050FE0028EED12B
:10865000012F0AD02E2D08D12046E16888477F1CC3
:108660000546022F46F02006C4DBA069002803DA85
:10867000404246F00106A061F00701D026F0100646
:108680006C2D0BD0682D09D04C2D39D06A2D35D0EA
:10869000742D35D07A2D33D016E038E0E1682F46BE
:1086A00020468847B842054609D16C2F26D04FF4A2
:1086B0008060E168064320468847054604E06C2F49
:1086C0001AD04FF4807006430DB3A5F1410019286C
:1086D00002D8203546F400664A46294620462660E0
:1086E0004E46FFF7EDFD80B101280BD0F61D26F0B8
:1086F000070000F1080956E74020E4E78020D8E7AA
:108700000020D6E706F104094DE7284652E7206A23
:10871000BDE8F09F2627010010B5044603E00CF0E9
:1087200019FD401C09D014F8010B05490028F6D1A9
:10873000BDE810400A200CF00DBD4FF0FF3010BD19
:10874000181A00200B4910B5A1F17C020A4CC2E9AD
:108750003712372106E000EB104342F82130074B77
:1087600000FB03400B1EA1F10101F4DC10BD012050
:10877000E8E7000014030020E119D666CD0D0100E2
:108780000B460146184600F0CBBA40EA010310B58B
:108790009B070FD1042A0DD310C808C9121F9C4291
:1087A000F8D020BA19BA884201D9012010BD4FF083
:1087B000FF3010BD1AB1D30703D0521C07E00020D0
:1087C00010BD10F8013B11F8014B1B1B07D110F82D
:1087D000013B11F8014B1B1B01D1921EF1D1184630
:1087E00010BD10B5431C02E010F8011B71B18107E8
:1087F000FAD14FF0013202C88C1A8C4314EAC2112C
:10880000F9D0C01A0A0603D0C01E10BDC01A10BD90
:108810000A0401D0801E10BD0902FCD0401E10BD0C
:108820007047704770477047002070470048704796
:1088300084030020704770477047704738B504467E
:108840000A4600206946AFF30080002808BF38BD03
:1088500002460099204600F00BFB012038BD0120A4
:1088600000F085BFF8B5AFF30080054600200C4648
:108870000C2000BF0646A819A0420DD93246694611
:108880000020AFF30080070008BF00F070FF0098E1
:10889000A04218BF0546C419FFF7C8FF0560074688
:1088A000F01D20F007004619284600F00AF8B442EF
:1088B00008BFF8BDA21B31463868BDE8F84000F09B
:1088C000D7BA00210160416070470C20704770B535
:1088D000044685690068C10601D5302600E02026DF
:1088E000C00707D070BDD4E9012130469047206A07
:1088F000401C20626D1EF6D570BD70B504468569BA
:108900000078C00707D170BDD4E90121202090472D
:10891000206A401C20626D1EF6D570BD09684A05AC
:1089200001D540B27047C905FCD500B2704709684F
:108930004A0501D5C0B27047C905FCD580B2704761
:1089400070B50C460546012A05D02878800600D56A
:10895000EA69002302E0012305E05B1C934202D296
:10896000E05C0028F9D1A869E618C01AA861286A55
:10897000184428622846FFF7AAFF04E0D5E9012140
:1089800014F8010B9047B442F8D32846FFF7B5FF1F
:1089900070BD2DE9F0470D4699469246044600F118
:1089A00024080168880604D5E06921F010012160DF
:1089B00000E00120A84201DD471B00E00027A1697B
:1089C0007A1902EB0900081AA0612078C00602D4C7
:1089D0002046FFF77CFF002608E0D4E901211AF8C1
:1089E00006009047206A401C761C20624E45F4DB4E
:1089F0002078C0060AD52046FFF769FF06E0D4E9D3
:108A0000012130209047206A401C2062381EA7F1C7
:108A10000107F4DC07E0D4E9012118F805009047CC
:108A2000206A401C2062281EA5F10105F3DC2046C7
:108A3000FFF763FF2078000602D50220BDE8F0872B
:108A40000120FBE711680268006A530501D5087030
:108A50000AE0D30501D5088006E0130603D5C21746
:108A6000C1E9000200E008600120704701694A1C6A
:108A700002610878704700B58FB0CDE9013100215F
:108A8000059105497944CDE9031011466846FFF781
:108A90007FFD0FB000BD0000E5FFFFFF0A6802F890
:108AA000010B0A6070470000074B70B50D467B4410
:108AB000FFF7E1FF0446284600F0F2FD10B14FF049
:108AC000FF3070BD204670BDA3C600002DE9FF5FDA
:108AD00015468A460446DFF8AC80F8440027D8E9FA
:108AE00000103E46CDE9001010E03AF816106A4634
:108AF00002A800F0D9FD411C07D02178890603D5D2
:108B0000E269391891420DD80744761C2078800616
:108B100002D5E069B84205DDAE42E6DB3AF8160060
:108B20000028E2D1A069C01BA0612046FFF7CFFE5C
:108B3000D8E90010CDE90010002017E03AF818102D
:108B40006A4602A800F0B0FDB0F1FF3F81460BD0AD
:108B500000250DF1080B05E0D4E901211BF8050003
:108B600090476D1C4D45F7D308F10100B042804697
:108B7000E4DB206A384420622046FFF7BEFEBDE8F1
:108B8000FF9F0000FE2101002DE9F0418046D21D2B
:108B900022F007020025D2E90002F52915A614D01B
:108BA000011E72F1000106DA0023D0EB030063EB33
:108BB000020211A608E0D8F800108B0701D50FA615
:108BC00002E0490701D50EA601251146002408F14F
:108BD000240704E000F066F930323A55641C50EA8C
:108BE0000102F7D12B46324621464046BDE8F0410E
:108BF000FFF7CFBE000000002D0000002B0000009A
:108C00002000000030B4002100F1240408E002F04C
:108C10000705D208303542EA4372DB086554491C27
:108C200052EA0305F3D10468002310A2250708D5F2
:108C300004F020040C4304D0C46901230CA2641E78
:108C4000C46130BCFFF7A5BE10B5044621461068CC
:108C5000FFF76DFE02462046BDE810400023D1E735
:108C6000D21D22F00701D1E90023CBE7000000006C
:108C700030000000F0B40D460188090502D5214CF2
:108C80007C4402E01F4C7C440E34002100F1240699
:108C900008E002F00F071209E75D42EA03721B09C0
:108CA0007754491C52EA0307F3D1027800231207D4
:108CB00004D5702D06D009B1022311342246F0BC30
:108CC000FFF767BE01231034F8E770B504460D4680
:108CD00021461068FFF72BFE024629462046BDE8D4
:108CE00070400023C6E7D21D22F00703D3E900231A
:108CF000C0E70368126843F0200303600823C361E0
:108D00000023B7E76020010010B5002000F028FD27
:108D1000FFF73AFBBDE8104001200BF005BE000054
:108D20002DE9F041074615460E461020FFF77BFB64
:108D3000040013D06760C4E902650948AFF30080FE
:108D400000F092F801682160064904600020086084
:108D50000348AFF300800020BDE8F0810120FBE76D
:108D6000040000200000002010B5203AC0F00B8065
:108D7000B1E81850A0E81850B1E81850A0E8185011
:108D8000203ABFF4F5AF5FEA027C24BFB1E8185087
:108D9000A0E8185044BF18C918C0BDE810405FEAE9
:108DA000827C24BF51F8043B40F8043B08BF704765
:108DB000D20728BF31F8023B48BF11F8012B28BF6A
:108DC00020F8023B48BF00F8012B70474FF000022B
:108DD0000429C0F0128010F0030C00F01B80CCF1CD
:108DE000040CBCF1020F18BF00F8012BA8BF20F83B
:108DF000022BA1EB0C0100F00DB85FEAC17C24BF8F
:108E000000F8012B00F8012B48BF00F8012B704738
:108E10004FF0000200B5134694469646203922BF13
:108E2000A0E80C50A0E80C50B1F12001BFF4F7AF5E
:108E3000090728BFA0E80C5048BF0CC05DF804EB40
:108E4000890028BF40F8042B08BF704748BF20F8AE
:108E5000022B11F0804F18BF00F8012B7047000063
:108E6000004870477C03002000487047B40300208E
:108E7000034640688C46002818BF88423CBF034622
:108E80004068F8D318681844884207D00CF10300F2
:108E900020F00700001D411A521A0146081D0A6001
:108EA000FFF7F0BA30B5B0F10A0271F100034FEAF2
:108EB000900E4EEA817EB0EB0E0061EB91014FEA1D
:108EC000101E4EEA017E10EB0E0041EB11114FEA2D
:108ED000102E4EEA016E10EB0E0041EB11214FEA0D
:108EE000104E4EEA014E10EB0E0041EB11414018BE
:108EF00041F100014FEAD00040EA41704FEAD10150
:108F00004FEA810444EA907410EB800544EB0104BD
:108F10006D1944EB0404521BA3414FF0000348BFFA
:108F20000A3200D530BD401C41F1000130BD2DE9B1
:108F3000FF4F0C461E464FF0FF378BB0D2E90001C1
:108F4000DDF860800A908A46C1F30A5505B93D46AE
:108F5000002108464FF00000BAF1000F00F4400075
:108F600005DA00EB80004FF4400101EA50004FEABF
:108F70009059B9F1010F00DDB9460A9850EA4A004C
:108F80000ED044F61050A5F2FF3545432F14B8F12A
:108F9000000F1ED07542291E1EDDC9F100021CE023
:108FA000B8F1010F4FF0000001D0302103E0F2438F
:108FB00005E02154401CB042FBDB3046002200217A
:108FC00021540B99C1F80880C1E900200FB0BDE819
:108FD000F08FBD1B6D1CDEE74A4600DA694206A829
:108FE00000F03EFC06AB93E8070003AB83E8070004
:108FF00050460A9910F0A7FB8DE80700A0F5005035
:109000001F3800900398002D0ADD42F21F014A46E6
:109010000844002303A90390684610F011FE09E0FC
:10902000A0F500504A461F38002303A90390684664
:1090300010F01BFE8DE807000004000C03D04FF079
:10904000FF30410800E01046B8F1000F03D00022C5
:10905000009215461EE0751E05D4FFF723FF30323F
:1090600062556D1EF9D5B3460122084302D0002295
:109070007F1C04E02078302801D100227F1E002AC6
:10908000099784D01DE0112D07DAFFF70BFF30326E
:1090900062556D1C50EA0102F5D1084302D00098D8
:1090A000C8B10EE00021681E05E0235C625C6354D9
:1090B0002254401E491C8142F7DBAB46A81B401ED0
:1090C0000990002004F80B000B98099AC0F808805A
:1090D000C0E9002B7AE711264FF0000857E72DE989
:1090E000F04F88460446D21D22F0070191B0D1E925
:1090F0000001CDE90A0110F0EFFE02460B98C00F07
:1091000001D02D2007E02068810701D52B2002E047
:10911000202101EAC000032A099001D0072A05DBBB
:1091200003464146204600F05BFB0BE120788006B9
:1091300001D5E06900E00620B8F1650F814606D050
:10914000B8F1660F18D0B8F1670F70D131E0002088
:10915000B9F1110F009001DB112301E009F10103C6
:109160000AAA01A90CA8FFF7E2FEDDE90C700026AF
:1091700009F10105834647E001204B4600904FF07E
:1091800000470AAA01A90CA8FFF7D1FEDDE90DB03E
:109190000C995D46002610B909F101000D18B9EBD4
:1091A000050003D4C0F1FF3609F10105A5EB090064
:1091B0002BE0B9F1010F01DA4FF001090020B9F1FC
:1091C000110F0090484601DD112300E003460AAA72
:1091D00001A90CA8FFF7ABFEDDE90C704D46002697
:1091E0008346207800070AD4AB4500DA5D4601A823
:1091F000012D04DD411911F8011C302907D04F451C
:1092000002DA17F1040F04DA012082460FE06D1E26
:10921000EEE7002F02DCED1B3E4403E0781CA84281
:1092200000DD7D1CB81B00F1010A4FF000472078DB
:10923000000703D4AA4501DB4FF0FF3A0021B7F144
:10924000004F0DF143088DF8431024D002202B234A
:10925000002F01DA7F422D230A21021EA0F1010016
:1092600000DC5FB197FBF1FC97FBF1F201FB1C7C8A
:1092700017460CF1300C08F801CDEEE7A8F101001B
:1092800003702188090501D5452100E06521A0F181
:10929000010800F8011C09980FA9A1EB0807FF1DA0
:1092A00000B10120411901EBEA70A1693844081AA4
:1092B000401EA0612078C00602D42046FFF707FBBD
:1092C000099828B1D4E901219047206A401C206206
:1092D0002078C00622D52046FFF7F9FA1EE0002EBE
:1092E00004DBB34502DD01A8805D00E03020D4E955
:1092F00001219047206A401C2062761CAAF10100DF
:109300005FEA000A0AD100F067FAC0680168405CB1
:10931000D4E901219047206A401C2062281EA5F153
:109320000105DCDC07E0D4E9012118F8010B9047C6
:10933000206A401C2062381EA7F10107F3DC20469A
:10934000FFF7DBFA032011B041E600002DE9F04FF2
:1093500004460D46D21D22F0070089B0D0E90097DF
:109360004846394610F0B8FD0246F80F01D02D23CB
:1093700007E02068810701D52B2302E0202101EAC4
:10938000C0038DF820300BB1012000E00020032A3B
:10939000824601D0072A04DB2946204600F020FA45
:1093A0003FE12078800601D40D2500E0E569C7F390
:1093B0000A560D2D49DA00214FEA175B08464FF097
:1093C0000000002F00F4400007DA00EB80004FF4AB
:1093D000400100EBD07001EA60008115012901DD38
:1093E0004FF0FF3100224FEA850CBCF1180F06D375
:1093F0001346ACF118004FF08052C24003E04FF426
:10940000801323FA0CF30CF10C0CBCF1200F04D3E5
:10941000ACF1200C09FA0CF001E007FA0CF000297D
:109420004FF0004801DD18B90FE00ED140450CD3D4
:1094300019EB02095F4121B9404502D19F4329EA56
:109440000209BBEB175F00D0761C2088000502D50F
:109450007B48784402E07A487844193808AA3023D7
:1094600002F80A30037C0AF10101002E0AF1020A17
:1094700053546A4602DC4FF0300101E04FF03101F5
:109480004FF001088DF8001002D0A6F2FF3603E07D
:1094900059EA470100D06B4E002D02DC2178090704
:1094A00004D54FF002082E218DF80110C44600218A
:1094B0000BE0C7F303433F01C35C491C6D1E02F878
:1094C0000830052908F1010801DA002DF1DC00213E
:1094D0000CE000EB1973491C1B786D1E082902F87B
:1094E00008304FEA091908F1010801DA002DF0DC13
:1094F00021688B0602D516E0A8F10108E04505DDDC
:1095000002EB080313F8013C302BF5D0B8F1000F43
:1095100009DD02EB080313F8013C2E2B03D10907E8
:1095200001D4A8F10108002D05DD3E2102F8081044
:109530006D1E08F10108407C002E02F8080008F1B9
:10954000010804DA2D20764202F8080002E02B2000
:1095500002F808000A214FF47A70864208F10108E7
:109560000BDB96FBF0F3303302F8083096FBF0F398
:1095700008F1010800FB136601E0642E0CDB642097
:1095800096FBF0F3303302F8083096FBF0F308F165
:10959000010800FB136601E00A2E06DB96FBF1F0E2
:1095A000303002F8080008F1010896FBF1F001FBE9
:1095B0001060303002F80800A16908F1010808EBDA
:1095C000050202EB0A00081AA0612078C00602D446
:1095D0002046FFF77CF9216A08AE01EB0A00206201
:1095E00004E0D4E9012116F8010B9047BAF1010A11
:1095F000F7D22078C00602D52046FFF768F96E46FC
:1096000009E016F8010B3E280FD0D4E9012190475C
:10961000206A401C2062B8F10108F2D22046FFF710
:109620006CF909B00320BDE8F08F206A284420625D
:1096300003E0D4E90121302090476D1EEBD3F8E719
:10964000C918010002FCFFFF10B5436913B1AFF365
:10965000008001E0FFF774F9012010BD127800F1DD
:1096600024010A7000224A700122EDE711684FF0D0
:10967000FF32E9E710B5436913B1AFF3008001E0B1
:10968000FFF724FA012010BD128800F12401828422
:109690000022C2840122EDE711684FF0FF32E9E7B2
:1096A000007B00F0800070472DE9F04116460C4623
:1096B000054600F089F8036893F80101012807D0F6
:1096C000FF2C12D8185D80B101202C70BDE8F0810C
:1096D000D3F807013246214603F20713C71828467C
:1096E000BC46BDE8F041002360474FF0FF30EDE796
:1096F0002DE9F84306461548AFF30080FFF7B4FBA9
:10970000134F8146E8464D4616E026B1E068B04268
:1097100001D0254610E0206828600C48C7F800807A
:10972000AFF30080D4E9010188470848AFF3008017
:109730003968414500D04D462C68002CE5D1002009
:1097400038600248AFF30080BDE8F88304000020D1
:10975000000000200148FFF767B800000400002067
:1097600010B500F0FDF8BDE8104000F0F4B810B5F9
:1097700000F00EF9BDE8104000F0EDB87546FFF7B7
:109780006FFBAE4605006946534620F0070085464C
:1097900018B020B5FEF734FEBDE820404FF00006BB
:1097A0004FF000074FF000084FF0000BAC46ACE85C
:1097B000C009ACE8C009ACE8C009ACE8C00921F0B8
:1097C00007018D467047000010B500F005F8001D38
:1097D00010BD00BF550B0100004870479C030020DE
:1097E0002DE9F0411F46044603260168072A01F4CB
:1097F000006004DB08B116A505E016A503E008B17A
:1098000015A500E015A521F010002060A069C01E7C
:10981000A0610FB1401EA0612046FFF758F84FB17C
:10982000D4E9012138469047206A401C2062C01CC0
:10983000206206E0206AFAE7D4E9012115F8010B5D
:109840009047761EF8D22046FFF757F8BDE8F08122
:109850004E414E006E616E00494E4600696E6600D4
:109860002DE9F047814616468AB0354878440DC840
:109870008DE80D0032487844801C03AC0DC884E8A4
:109880000D0041F69B300844372190FBF1F290FB2C
:10989000F1F5A5F1800501FB12041B3C02D56442E1
:1098A000012000E00020DFF898A080460027FA445D
:1098B000AAF1BE0A0EE0E0070AD03246684607EB7E
:1098C000470101230AEB810110F0CFF98DE8070071
:1098D00064107F1C002CEED1194F7F44AE3F19E07D
:1098E000E80715D007EB04100DF1180A90E80E00F8
:1098F0008AE80E00C068F04201D1981908903246FB
:10990000012306A903A810F0B0F903AB83E8070010
:109910006D10641C002DE3D14FF0010332466946FF
:10992000B8F1000F03A802D010F08AF901E010F09E
:109930009CF9C9E90001C9F808200AB0BDE8F08720
:109940004015010010B50446AFF300802046BDE885
:109950001040FEF727BD002801D00AF0E5BF704790
:1099600010B5002102A000F0C1F8012010BD0000D8
:10997000534947414252543A2041626E6F726D61C1
:109980006C207465726D696E6174696F6E000000A1
:1099900010B5012805D0002103A000F0A7F8012090
:1099A00010BD09A1F8E7000053494752544D454DF9
:1099B0003A204F7574206F662068656170206D6570
:1099C0006D6F7279000000003A2048656170206D6B
:1099D000656D6F727920636F727275707465640063
:1099E000032A40F2308010F0030C00F0158011F8CB
:1099F000013BBCF1020F624498BF11F801CB00F8A3
:109A0000013B38BF11F8013BA2F1040298BF00F8F6
:109A100001CB38BF00F8013B11F003033FF4A4A9C8
:109A2000083AC0F0088051F8043B083A51F804CBDA
:109A3000A0E80810F5E7121D5CBF51F8043B40F8A0
:109A4000043BAFF30080D20724BF11F8013B11F8AB
:109A500001CB48BF11F8012B24BF00F8013B00F8EF
:109A600001CB48BF00F8012B704700000000000048
:109A700030B44FF0013C50F8042B51F8043BCCFAC1
:109A800052F4D51A20D1FCB950F8042B51F8043BFC
:109A9000CCFA52F4D51A17D1B4B950F8042B51F8B6
:109AA000043BCCFA52F4D51A0ED16CB950F8042B01
:109AB00051F8043BCCFA52F4D51A05D1002CDAD077
:109AC00030BC4FF00000704729BAB1FA81F111F0B3
:109AD0001801D1F120008440F2D1CA40CB4012F0ED
:109AE000FF0213F0FF0330BCD01A704770B5054673
:109AF0000C460A2000E06D1CAFF3008035B12878D9
:109B00000028F8D102E0641CAFF3008014B1207883
:109B10000028F8D1BDE870400A200AF007BF53EAD8
:109B2000020C00F069802DE9F04B4FF00006002B8D
:109B30001FBFB3FA83F503FA05F424FA05F65E4075
:109B400012BF1643B2FA82F502FA05F4C5F12005F8
:109B50001EBF22FA05FC44EA0C04203556EA044CE8
:109B60004FEA144418BF641C4FF000084FF000097E
:109B7000904271EB030C39D3002919BFB1FA81F778
:109B800001FA07F6B0FA80F700FA07F6C7F12007E6
:109B90001EBF20FA07FC46EA0C062037B6FBF4FC91
:109BA000A7EB0507103F07F01F0BCBF120062CFA9F
:109BB00006F60CFA0BFB44BFB3460026202FA4BFC9
:109BC0005E464FF0000B5BEA060C08BF4FF0010B3E
:109BD00019EB0B0948EB0608ABFB027C06FB02CC39
:109BE0000BFB03CCC01B71EB0C01C1E70B4602461B
:109BF00041464846BDE8F08B13B5084318BF4FF007
:109C0000FF300146AFF30080BDE81C407047431AA7
:109C100028BF9A427FF6E4AE10441144032A40F272
:109C2000268010F0030F1EBF11F8013D521E00F8F0
:109C3000013D10F0030F7FF4F6AF11F0030300F0C5
:109C40005D80083AC0F00B8051F8043D083A51F8A5
:109C500004CD40F8043D40F804CDFFF7F3BF121DDA
:109C60005CBF51F8043D40F8043DAFF30080D207DB
:109C700024BF11F8013D11F801CD48BF11F8012CA6
:109C800024BF00F8013D00F801CD48BF00F8012CC9
:109C90007047000008487CB5784400900748784435
:109CA000009C0546019004E0204601680844804776
:109CB000241DAC42F8D17CBD489A0100469A0100AF
:109CC00010B500F045F8006810BD10B5044600F06E
:109CD0003FF8046010BD431A28BF9A427FF644A89B
:109CE0001044114410F0030F1EBF11F8013D521E25
:109CF00000F8013D10F0030F7FF4F6AF103AC0F00A
:109D00000A8010B531E9185020E91850103ABFF414
:109D1000F9AFBDE81040530724BF31E9081020E92E
:109D2000081044BF51F8043D40F8043D12F0030F01
:109D300008BF7047D20728BF31F8023D48BF11F86D
:109D4000012C28BF20F8023D48BF00F8012C7047C5
:109D5000004870477C030020FEE7000046F2000048
:109D6000C4F202000168890758BF704742F2D0511F
:109D700041F6D622C2F20001C2F20002496F1388F6
:109D800000EE103AB8EE400A81ED000A538800EE6A
:109D9000103AB8EE400A81ED010A938800EE103ABD
:109DA000B8EE400A81ED020AD38800EE103AB8EE10
:109DB000400A81ED030A138900EE103AB8EE400A1A
:109DC00081ED040A538900EE103AB8EE400A81EDA5
:109DD000050A928900EE102AB8EE400A81ED060AC3
:109DE0000221416042F20800C4F20100016841F41E
:109DF000800101607047000046F20840C4F2020092
:109E000050F8081C0222C1F20002114208BF70473C
:109E1000022140F8041C016821F00101016041F6B3
:109E2000D420C2F2000001210170704746F21C40AC
:109E3000C4F2020050F81C1C2022C1F200021142A0
:109E400008BF70470168002221F00101016041F65E
:109E50001C21C2F2000109680A70202140F8181C78
:109E600070470000704700002DE9F04F85B08A462A
:109E70000646084628219046FEF7CAFFB27B52BB31
:109E8000B0894BF20F01884223D1D6E90190814578
:109E90001FD9356800F1010BC6F808B03DB3295C45
:109EA00001F01C024FEA511C182A01F01F0120D1B9
:109EB000D0A20A4412F8182C0295531E032B02F06C
:109EC000030420D2002C00F0BC80002700230022D5
:109ED0007EE00122B2734FF0000C002100230F46F8
:109EE000002A00F0AE801F2005B0BDE8F08F0022F0
:109EF000F1E71C294FF00002F0D31F29EED0162005
:109F000005B0BDE8F08F019402F0FC0400220025AA
:109F10000027002395BBD9452DD90BF10105DDF8AC
:109F200008E0B5601EF80B001B0443EA17433F042A
:109F3000A94547EA002730D905F1010BC6F808B05A
:109F40001EF80500D94547EA00072AD90BF101059B
:109F5000B5601EF80B001B0443EA17433F04A945F4
:109F600047EA002721D905F1010BC6F808B01EF811
:109F700005E000250CE001220125B2731B0443EA31
:109F800017433F04180440EA17433F044FF0000E04
:109F9000043C47EA0E07BDD10EE00122B273AB4686
:109FA00001E00122B2730125ECE701224FF0000E1F
:109FB000AB460125B273EBE7019C002C3FF490AF58
:109FC0001802002D029D40EA17634FEA072730D19F
:109FD000D9452CD90BF1010EC6F808E015F80B0095
:109FE000012C47EA00073FF47BAF1802A34640EA82
:109FF0001763F1454FEA072740F2E18028460EF14A
:10A000000105B56010F80E00BBF1020F47EA00072A
:10A010003FF466AF180240EA1763A9454FEA0727E5
:10A0200040F2E580681CB0600298455DD2E00122F4
:10A03000B273012C3FF454AF180240EA17633F0299
:10A04000C0E0DFE80CF004041818131359361F2978
:10A0500054D0BCF1000F00F06A80002B00F1898021
:10A06000D843F943CAE9021002209BE01F2910D10E
:10A070004FF6FF7718E00CF104001F298AF8000062
:10A080002FD100204FF0FF31CAE9020105B0BDE831
:10A09000F08F4FF6FE70C01B4FF00000984103D2C6
:10A0A0002A2005B0BDE8F08FAAF808708AF800C031
:10A0B0007AE0A1F114020B2A8AF800105DD8002082
:10A0C000DFE802F0737373730661656D5B5B5B734E
:10A0D000B7F1200073F100004FD2142005B0BDE8A5
:10A0E000F08F6FF00400C01B4FF00000984109D2C0
:10A0F0002B2005B0BDE8F08F1F2914D1182005B022
:10A10000BDE8F08FB0894BF20F0188424FF000009C
:10A1100004D1D6E90112891A28BF0846B8420ED2E6
:10A120000120B073DFE6FE20CAE902733AE00320A3
:10A13000CAE90273B3F1FF3FC8BF022032E0B06842
:10A140003168C2190029B2603FF4CDAEB8F1000FFA
:10A1500001EB00062CD0D8E9001503A800223B46ED
:10A16000A847039D3DB30498B84235D20025002787
:10A1700037E0402005B0BDE8F08F0D208AF80000E0
:10A180008AF8087010E0B8B200F038F804E03846F9
:10A1900010F00EFC41EC100B8AED020B01E0CAE955
:10A1A00002731B208AF80000002005B0BDE8F08F84
:10A1B000CAE90267F8E72E2005B0BDE8F08F01225A
:10A1C0005C46B273022C3FF48BAE180240EA176370
:10A1D0003F0200252F4383E6284631463A46FFF7E3
:10A1E000FFFB0120CAE902578AF80400DCE70122DC
:10A1F000B273EEE701020408FEE700000246C0F376
:10A2000084211F296FF39F221DD031BB52B380B52B
:10A21000002140F2F13C4FF0000E00BF13469205C2
:10A220002AD4DA052BD41A062DD44FEA0E12BCF12B
:10A23000040C42EA137E61F100015A064FEA031250
:10A24000ECD5DB0022E092B14FF4002101EA82213B
:10A250006FF35F2240F2FF7C21E001F57C7C9102EC
:10A2600000221CE04FF0000C0022002117E0002229
:10A2700040F2FF7C002112E0BCF1010C06E05B0023
:10A28000BCF1020C02E09B00BCF1030C4FF6000194
:10A29000C0F20F0101EAC3210022BDE880404FF067
:10A2A000004303EA004040EA0C50084340EC102B06
:10A2B00070470000FEE70000704700002DE9F04FF6
:10A2C00087B043F29C34C2F20004D4F800E0DEF818
:10A2D0001400DEF81810DEF81420D20740F0A18632
:10A2E00001EA00085FEA887044BF0220CEF814003B
:10A2F0005FEAC86040F1828060682C27816921F0A4
:10A3000010018161026AC2F30A11C2F3434302F0F1
:10A310000F0212FB0742062B02F5B8723AD0022B4D
:10A3200068D1002966D05669CD1C4FF0FF3303EB8E
:10A330009503C5F3810C032B334611D3AB0823F0EF
:10A3400003054FF4805433460759043D1F600759F5
:10A350005F6007599F600759DF6003F11003F3D175
:10A36000BCF1000F0FD04FF480554759BCF1010FDD
:10A370001F6008D04759BCF1020F5F6003D04FF453
:10A380008057C7599F60731843F29C345361C2F2DF
:10A3900000042CE059B3CB1C9E08731E06F0030783
:10A3A000032B04F536730FD326F003064FF48055C4
:10A3B0004459043E1C6044595C6044599C604459B3
:10A3C000DC6003F11003F3D143F29C34C2F20004C9
:10A3D0006FB14FF480568559012F1D6007D0865903
:10A3E000022F5E6003D04FF48057C7599F60D36936
:10A3F0001944D161816941F0100181615FEA4830FF
:10A40000CDF804E0CDF8108040F1CA816568D5F838
:10A410001808D5F81C1808401FFA80F8B8F1000F8A
:10A4200000F0BE8105F510604FF0000A069005E0CF
:10A430005FEA58080AF1010A00F0B2815FEAC870C9
:10A44000F6D0D5F81008D5F83418069A21FA0AF192
:10A45000C90102EB4A1BC9B2DBF80820084300EA35
:10A4600002095FEAC97000F00D81D5F834080122B5
:10A4700002FA0AF18843C5F83408CBF80820D4F86A
:10A480001C0301284FF02C000AFB004006D1816913
:10A49000426ABAF1000F1144416213D05FEA0A61C7
:10A4A0000ED0A0684269002A00F0EC8094F80C03FA
:10A4B000032840F0E780201D5FFA8AF19047E1E031
:10A4C00010303DE010308069002804F1100037D1D1
:10A4D0006168D1F8002B002A1DD40022C1F8102B8E
:10A4E000D1F8102B4FF6FF73CEF207031A4042F457
:10A4F0000022C1F8102BD1F8102B0023CFF6F873EF
:10A500001A4042F01802C1F8102BD1F8102B42F07B
:10A51000C042C1F8102BD1F8002B002A10D404F54A
:10A520003672C1F8142BD1F8002B42F40042C1F866
:10A53000002B6168D1F8002B42F00042C1F8002BDB
:10A5400094F80813022940F09D808168426A8A428B
:10A550000BD9531A436242698B4238BF19468BB2FA
:10A56000201D00210EF0CCFC8CE0026A8A4241D111
:10A57000826A8A423ED3B4F80A138A423AD200264B
:10A580000662201D0021002200230EF0B9FC606845
:10A5900094F87011C4E96166C4F88C614FF6FF76D7
:10A5A000D4F87821CEF2070600EB411106F10057EE
:10A5B000D1F8103B3A400027CFF6F8773B401A43DA
:10A5C000C1F8102BD1F8102B324042F40022C1F810
:10A5D000102B94F8732101F53061012A4AD1D0F88B
:10A5E00008080A68C0054FF0805058BF4FF000506F
:10A5F00010433EE0A068C16829B194F80C03032819
:10A6000001D1201D88470522606894F8701184F8F4
:10A61000082300224FF6FF76C4E96122C4F88C219A
:10A62000D4F87821CEF2070600EB411106F100576D
:10A63000D1F8103B3A400027CFF6F8773B401A4359
:10A64000C1F8102BD1F8102B324042F40022C1F88F
:10A65000102B94F8732101F53061012A0AD1D0F84A
:10A6600008080A68C0054FF0805058BF4FF00050EE
:10A6700010430860086840F080600860086840F097
:10A68000004008605FEA097044BF0820CBF808006A
:10A690005FEAC96044BF1020CBF808005FEA496058
:10A6A00044BF4020CBF808005FEA897044BF022015
:10A6B000CBF808005FEA09607FF5BAAE2C200AFBF0
:10A6C0000042D4F804C0D2E90A304FEA4A1791692F
:10A6D0001E1A67448E4238BF3146D7F81869AB4618
:10A6E000CD1CB6B2B6EB950F88BF834210D843F2AB
:10A6F0009C340029C2F200045D467FF499AEDCF878
:10A700003408012101FA0AF18843CCF834088FE6B5
:10A71000103207F5106E57690CF580564FEA0A346F
:10A720009168181A884238BF014688B240B300F1D8
:10A7300003094FF0FF3000EB99000328384611D38E
:10A740004FEA990020F00305384600BF0368043D36
:10A75000A3514368A3518368A351C36800F110005B
:10A76000A351F3D1C9F3810353B10568012B3551CE
:10A7700006D04568022B35511CBF8068305100BFA0
:10A78000D0690F4408445761D061DEF81830CD1C01
:10A790009BB2B3EB950FAAD993699842C0D3A6E7B1
:10A7A0000498000340F12584D4F80490D9F81808DF
:10A7B000D9F81C1808405FEA104800F01A8404F524
:10A7C000C67709F5306B4FF0000A18E0E80644BF81
:10A7D0001020CBF80800A80644BF2020CBF80800C2
:10A7E000A80744BF0220CBF808000AF1010A5FEA7B
:10A7F000580807F12C070BF1200B00F0FA835FEAF1
:10A80000C870F2D0DBF80800D9F8141801EA000586
:10A81000E80700F09B800120CBF80800DBF8080077
:10A82000D4F81C13012959D1010700F18880810651
:10A8300000F16981000400F184804FF6FF7657F83B
:10A84000140C57E90221DBF81030CEF2070606F1AE
:10A8500000563340814288BF0846C01A3860104411
:10A8600051EA0A0147F8080C61D16068D0F8001B72
:10A8700000291DD40021C0F8101BD0F8101B4FF682
:10A88000FF72CEF20702114041F40021C0F8101B04
:10A89000D0F8101B0022CFF6F872114041F01801D9
:10A8A000C0F8101BD0F8101B41F0C041C0F8101BBD
:10A8B000D0F8001B00293AD404F53671C0F8141BF7
:10A8C000D0F8001B41F40041C0F8001B6068D0F8CC
:10A8D000001B41F00041C0F8001B28E0BAF1000F56
:10A8E00025D157F8040C10BB6068D0F8001B002974
:10A8F0001DD40021C0F8101BD0F8101B4FF6FF72BA
:10A90000CEF20702114041F40021C0F8101BD0F82C
:10A91000101B0022CFF6F872114041F01801C0F868
:10A92000101BD0F8101B41F0C041C0F8101B5FFA9B
:10A930008AF00EF01FF928077FF548AF09E0000400
:10A9400004D54FF40040CBF8080000BF28077FF57E
:10A950003DAF0820CDE9055ACBF80800DBF8080028
:10A96000CA46000444BF4FF40040CBF8080094F8F6
:10A97000DA0294F8DBE294F8D82294F9DC520290DF
:10A9800040EA0E2094F8DD1294F8D9620390A4F8FE
:10A99000D202E8B2B4F8DEC202F01F0940EA012197
:10A9A0000123B9F1020F84F8D02284F8D162A4F80F
:10A9B000D412A4F8D6C284F80833A4F80AC339D054
:10A9C000B9F1010F14D0B9F1000FD146DDF818A08C
:10A9D00044D112F0600F00F0F28043F29C31C2F2D9
:10A9E000000188688268081D01F53471904735E0E0
:10A9F00043F29C31C2F2000191F80C0301380228A5
:10AA000026D888680C1D82680D4601F534712046F1
:10AA10009047B5F8D612D146DDF818A0002908BF36
:10AA200000281BD143F29C30C2F20000042180F8C0
:10AA30000813E0E112F0600F6CD043F29C31C2F2D7
:10AA4000000188688268081D01F53471904702E0B2
:10AA5000081D0EF05BF9D146DDF818A043F29C34D6
:10AA6000C2F2000494F80E0368B1616800F07F0040
:10AA7000D1F8002822F4FE6242EA0010C1F8000872
:10AA8000002084F80E03D4F81C03059D01287FF4F0
:10AA90009DAE6068D0F8001B00291DD40021C0F8CD
:10AAA000101BD0F8101B4FF6FF72CEF207021140B8
:10AAB00041F40021C0F8101BD0F8101B0022CFF683
:10AAC000F872114041F01801C0F8101BD0F8101BAB
:10AAD00041F0C041C0F8101BD0F8001B00293FF521
:10AAE00075AE04F53671C0F8141BD0F8001B41F4A4
:10AAF0000041C0F8001B6068D0F8001B41F0004125
:10AB0000C0F8001B62E62020CBF8080028077FF57C
:10AB10005DAE1EE743F29C34032EC2F20004D14620
:10AB200000F09080DDF818A0012E00F07480002E57
:10AB300040F0C18094F80C13032900F063810229CE
:10AB400040F0B98010F07F0225D02C2610FB064083
:10AB500012FB064300F5B8706168002D48BF03F191
:10AB6000100083780678002B4FEA461300F0CE8160
:10AB700001F530615E580B44002E06D41E6826F0A5
:10AB800080461E60037801EB4313196841F40011FD
:10AB90001960012141730C21B5F1FF3FC8BF4FF48B
:10ABA000B671201D01442C2312FB0312002142F830
:10ABB000101F0221C4E90D1184F808133CE1092E8D
:10ABC00000F2F980DFE816F00A009800F700D900DB
:10ABD000F700E700ED00F7007B00B70043F29C317F
:10ABE000C2F2000191F80C0300F0FE00022840F0D0
:10ABF000898191F80F0328B1D1F8180340F00200C1
:10AC0000C1F818030220C1E90D0081F80803081DEE
:10AC100001F5467210E194F80C13032919D1039938
:10AC200000297FF41BAF410607D00DF071FFA0682B
:10AC300004F534718268201D9047042084F80803CD
:10AC4000201DD9E094F80C13DDF818A0032900F0BA
:10AC5000C08002292FD141063FF400AF43F29C335C
:10AC6000C2F200032C2600F07F0210FB063012FB1C
:10AC7000063200F5B8705968002D48BF02F1100087
:10AC800082780378002A4FEA431200F0FC8001F535
:10AC9000306153580A44002B06D4136823F08043D4
:10ACA0001360027801EB4212116841F40011116047
:10ACB00001214173D2E6201D0EF028F8CEE6BCF14A
:10ACC000010F40F0788043F29C31C2F2000191F80C
:10ACD0000C03032800F0E080022840F013810020DC
:10ACE000C1F810030120C1E90D00022001F54472F2
:10ACF00081F80803081D78E143F29C31C2F200019B
:10AD000091F80C0300F0FE00022840F0FB8003984D
:10AD100001287FF4A3AE43F29C35C2F20005002067
:10AD200085F80F03D5F81803A96820F002008A6897
:10AD3000C5F818032DE0080447F6E8500299C2F25E
:10AD40000000017008BFBCF1000F34D143F29C3207
:10AD5000C2F2000292F80C03032800F0E0800228FF
:10AD600040F0F480002900F0F5809068C2F81413D8
:10AD70000168032082F80C0300E1039801281AD12E
:10AD800043F29C35C2F20005A8688268012085F86C
:10AD90000F032C1D28E0080408BFBCF1000F50D0A1
:10ADA00009E0AEF10100062805D8DFE800F00C8EBE
:10ADB0007F04049AA40043F29C30C2F200000430E5
:10ADC0000DF0A4FF4AE643F29C30C2F20000C068D6
:10ADD000EBE0039921B910F07F0101D00EF078FA71
:10ADE000A06825468268043405F5347120469047F2
:10ADF000042085F8080320460021002200230EF0DD
:10AE00007FF82BE62C2200F07F0110FB024011FBA3
:10AE1000024100F5B872002D48BF01F11002507BCD
:10AE20000138B0FA80F0400942F8100F0220C4E95E
:10AE30000D0084F80803201D002102230EF060F8A5
:10AE40000CE643F29C31C2F2000191F80C03032896
:10AE500058D00846029A50F8041F12F07F0280F87A
:10AE60000A23D1F8003823F4FE6343EA0212C1F842
:10AE700000284FF0020108BF012180F808130421C7
:10AE800080F80413B8E701F5106153580A44B3F190
:10AE9000FF3F3FF702AF07E70120C1E90D000220A5
:10AEA00081F80803081D01F545729EE0029A43F2FD
:10AEB0009C31052AC2F2000165D8DFE802F0037177
:10AEC0006B6E6874C86810306FE043F29C30C2F259
:10AED000000090F80913C068002914BF083028301A
:10AEE00063E043F29C31C2F2000191F8090348B9D2
:10AEF000C868043059E043F29C31C2F2000191F875
:10AF0000090360B3081D0DF001FFA7E501F510610D
:10AF10005E580B44B6F1FF3F3FF730AE35E629B33C
:10AF2000D2F81403884215D19068141D4168204658
:10AF300015468847A86847F6E851C2F2000109782B
:10AF400002682046C5F81413904751E7101D0DF014
:10AF5000DDFE83E5042082F80803101D4CE7C86875
:10AF6000C0688047416807224A7023E09068022148
:10AF700082F80C1341680020C2F81403141D204607
:10AF80001546884734E7EE2A7FF42BADBAE7C86848
:10AF900024300AE0C868183007E0C8681C3004E0B4
:10AFA000C868143001E0C868203000688047002875
:10AFB0003FF454AD018800293FF450AD43F29C3278
:10AFC000C2F20002B2F8D632002B3FF447AD9942EC
:10AFD00038BF0B46426843F29C30C2F200000221A7
:10AFE000C0E90D3380F80813043000210DF088FF0C
:10AFF00034E5049EDDF80480F00415D4300700F138
:10B00000DE80B00400F1E680F00200F18C81B00235
:10B0100000F19681B6F1FF3F40F3A081300500F1C9
:10B02000BC8107B0BDE8F08F646840F64055D4F8A5
:10B030000408C0F2030520F00100C4F804080EF073
:10B040001FF82069102161F38A1020612069002116
:10B0500040F020002061681E2269920644BF2269E8
:10B060005FEA82620FD581420DD8226992060AD525
:10B070000231A94207D82269920604D54A1CAA4285
:10B0800001F10201E8D9FF20C4F80809C4F8080B4F
:10B09000C4F82809C4F8280BC4F84809C4F8480BB8
:10B0A000C4F86809C4F8680BC4F88809C4F8880BA8
:10B0B000C4F8A809C4F8A80BC4F8C809C4F8C80B98
:10B0C000C4F8E809C4F8E80B4FF0FF30C4F81808DA
:10B0D0004FF00110C4F81C08D4F8140840F0010027
:10B0E000C4F81408D4F8140840F00200C4F8140896
:10B0F000D4F8140840F00800C4F81408D4F8100874
:10B1000040F00100C4F81008D4F8100840F0020024
:10B11000C4F81008D4F8100840F00800C4F810086B
:10B12000D4F8000820F4FE60C4F80008D4F8000B3E
:10B13000002816D40020C4F8100BD4F8100B0121FD
:10B1400061F3DC40C4F8100BD4F8100B182161F344
:10B150001200C4F8100BD4F8100B40F0C040C4F833
:10B16000100B43F29C34C2F20004D4F81C030128F3
:10B1700015D16068D0F8001B002910D404F5367191
:10B18000C0F8141BD0F8001B41F40041C0F8001BAC
:10B190006068D0F8001B41F00041C0F8001BA068B7
:10B1A000026A012084F80C0312B1201D012190478E
:10B1B0004FF48050C8F8140030077FF522AFA06824
:10B1C000C16909B1201D88470820C8F81400B004DF
:10B1D0007FF51AAF65684FF41051D5F8080810F0E4
:10B1E000060018BF012084F80903E86818BF4FF46F
:10B1F000A05120F470500844E86094F8722194F84B
:10B200007011D5F81C085AB14FF4803202FA01F1DE
:10B210008843C5F81C0894F8701105F5306009E002
:10B22000012202FA01F18843C5F81C0894F8701154
:10B2300005F510604A01825800EB4111B2F1FF3F61
:10B240000EDC0A6842F080420A6094F870114901ED
:10B25000425842F00062425094F8701100EB4111E4
:10B26000086820F4004008606068A17C237CD0F866
:10B270001C2800294FEA431109D04FF4803707FA00
:10B2800003F39A43C0F81C2800F5306007E001275B
:10B2900007FA03F39A43C0F81C2800F510600A5817
:10B2A0000144B2F1FF3F0CDC0A6842F080420A60C0
:10B2B000217C4901425842F000624250217C00EB5F
:10B2C00041110868274620F40040043408602046F5
:10B2D0000021002240230DF063FD20468021002242
:10B2E00040230DF05DFDD5F8000940F2FF71884361
:10B2F000C5F80009D5F8040820F48070C5F80408E2
:10B30000B8684168012087F80C0309B120468847D6
:10B3100043F29C344FF40050C2F20004C8F8140009
:10B32000F0027FF574AEA068026A12B1201D0521FB
:10B3300090474FF48010C8F81400B0027FF56AAE51
:10B34000A068026A12B1201D062190474FF4001038
:10B35000C8F81400B6F1FF3F3FF760AE6068D0F860
:10B36000041821F00101C0F804186068D0F8001E2C
:10B3700021F00101C0F8001EA068026A94F80D03D4
:10B3800084F80C0312B1201D032190474FF00040B8
:10B39000C8F8140030057FF544AE6068D0F808188E
:10B3A000C90716D094F80C1384F80D13042184F8FF
:10B3B0000C13D0F80818C90705D0D0F8001E41F0CA
:10B3C0000101C0F8001EA068026A12B1201D02210E
:10B3D00090474FF40060C8F8140007B0BDE8F08F44
:10B3E000704700002DE9F04F8BB082894BF20F06B9
:10B3F000B24257D1D0E901239A4253D9D0F8D42090
:10B4000042B1D0F8D0301F78062F1CBF9B6813F1D3
:10B41000010341D100F1100982468B4600F0A6FAE3
:10B4200068B1A0F11E011E290246C0F0E9809BF818
:10B43000004059461F2C1046D44604D056E09BF8D5
:10B4400000401F2C03D120200BB0BDE8F08F9AF8EC
:10B45000EC005946D446022828D1052C45D1B1F933
:10B460000800002800F1D78080B247000F816546B0
:10B4700055F8D03F2024A3EB09024FEA920E4AF67A
:10B48000AB22CAF6AA220EFB02F200284FF00000FF
:10B490000C708A7042D166E0D2884FF6FD7302329A
:10B4A0001A42B7D143200BB0BDE8F08FDCF8D000D2
:10B4B0000078052819D10D79D1E90287604600F09E
:10B4C00055FAA0F11E011E29C0F09A800246072CF1
:10B4D0008BF8055000F0B9809AF8EC00012840F094
:10B4E000AB802F200BB0BDE8F08F0020654655F8EB
:10B4F000D03F4AF6AB22A3EB0907BF08CAF6AA223F
:10B500007A43271F1C2F8A7017D80122BA400327BD
:10B51000C1F200073A4210D00F8977B10CF1C40292
:10B52000934254D203F80C4F2B60DF802A684FF00F
:10B53000FF3397802A6893600C78231F1C2B12D846
:10B54000012203279A40C1F200073A420BD00C892E
:10B550004CB11C2B41D801229A403A423DD04FF6C3
:10B56000FF72944239D12B684B4536D04FF6FF74A9
:10B570001A78062A31D09A88A24217D1BCF80C203A
:10B58000B2422AD1DCE90127BA4226D98046604678
:10B5900069460022FEF768FC90BB9DF800001F285A
:10B5A0003DD12B685946D446404605E0DA88013A39
:10B5B000DA802B68DA8882B91A78062A0BD09A6862
:10B5C000013208D10C3B4B452B60D1D105E029203D
:10B5D0000BB0BDE8F08F0022DA80DCE9342333B110
:10B5E0001778062F1CBF976817F101070BD1A2EB44
:10B5F00009024AF6AB239208CAF6AA235A43CA7034
:10B600000BB0BDE8F08FDB884FF6FD7702333B428D
:10B61000EDD10022F3E72A200BB0BDE8F08FDAF875
:10B620000400D44687425946404692BFCCF8087081
:10B6300001228CF80E20D0E7062C4FF02F00DFD827
:10B640000121A14011F04C0FDAD05846C0E906871D
:10B650008BF80140EBE600002DE9F04F81B02DEDB5
:10B66000048B96B00C460190FFF7BCFE002840F01A
:10B6700076819FED358B9FED369B4AF6E8564FF667
:10B68000FA7B04F1200804F12209C0F601060CE05F
:10B69000302161E0B9F80400D9F80010A8F80400DE
:10B6A0000BF10500C8F80010E084B8F80050012D37
:10B6B00022D0642D1AD04FF6FF70854200F04B81E6
:10B6C00025F0010004284FD12078042840F0FF80A5
:10B6D0000198A6780CA9FFF785FE002800F0BC8031
:10B6E0004AF6E8560746C0F60106F1E0207802283F
:10B6F00040F02D814E212FE020780021821E192A52
:10B700004FF030002161616100F2298141270C2155
:10B71000DFE812F022002401250125012501250181
:10B7200025012501250125012501250125012501E9
:10B7300025012501250125012501250125012501D9
:10B740002501250124003A00FEFFFFFFFFFFDF4334
:10B75000FEFFFFFFFFFFDFC321709BE7A0680FF034
:10B7600027F941EC100B11E040F20110854201D0A5
:10B77000242D45D12078302707283FF489AF0628AB
:10B7800040F0EC804C21E7E794ED020B56EC105BA7
:10B79000002126F00040002DC7F6F07118BF40F0E0
:10B7A000010088424FF0410700F2D88053EC182B7B
:10B7B000284631460FF035F9002840F0CF8053EC91
:10B7C000192B284631460FF041F9002840F0C68079
:10B7D000284631460FF014FAC4E902010EF0DCFEEF
:10B7E00002460B46284631460EF0F4FF41EC100BA2
:10B7F0004AF6E856C0F6010684ED040B0C21ABE7CF
:10B800005D4500F2A8803F2D00F273803046DFE8EE
:10B8100005F08F75207E75757575757575757575FF
:10B8200075757575757575757575847575757575B9
:10B8300075757881878A758D75757575757575756A
:10B8400075757575757575757575757575757575A8
:10B85000757B06F108006BE09DF8320006F1010AE5
:10B860004AF6E85682454FF02C07C0F601062FD164
:10B870009DF8300002282BD1DDE90E01C4E9020158
:10B88000019802A9FFF7E8FE00287FF429AF9DF890
:10B890000A004AF6E8568245C0F6010617D19DF81F
:10B8A00008002C270A28207012D8012101FA00F084
:10B8B00040F2046108420BD004999DF80B00059AF0
:10B8C0008245C4E904121CBFE070002700E02C2769
:10B8D0002078042D4FF0110108BF0E21022800EB43
:10B8E000010218BFA2F10801002F21703FF4D2AE6F
:10B8F00034E0B5F57B7F01D1301D19E006F12C0055
:10B9000016E006F1140013E006F1280010E006F13D
:10B910000C000DE006F118000AE006F1100007E047
:10B9200006F11C0004E006F1200001E006F124000D
:10B93000807880B141B22278B1F1FF3F4FF006012B
:10B94000C8BF0721914208D100F07F0104E7032816
:10B9500003D1412003E0002700E03027384616B02D
:10B96000BDEC048B01B0BDE8F08F00002DE9F04F75
:10B9700093B0054600F1D80AF030019004A80C46B7
:10B980004FF0FF390230002708AECDE9049902904C
:10B99000CDF800A0D5F8DC0030B195F8ED20D34605
:10B9A000002A18BF524602E04FF0000B0022284642
:10B9B0002146FEF759FA002840F0E48094F8008010
:10B9C0000397A8F1080010F1020F69D2B8F1FE0F39
:10B9D00040F0D280BDF816004FF6FF7188424FF05C
:10B9E0003C07D7D1BDF814300299D4E9020C049A6F
:10B9F0008B804FF6FB73C31A7CF100030A60C0F022
:10BA00009D800199D1E9001383EA090281EA0906C0
:10BA100032434FF000021EBF414083EA0C0353EA59
:10BA200001032FD0D5E93E1383EA090281EA090612
:10BA300032434FF001021EBF414083EA0C0353EA38
:10BA400001031FD0D5E9401383EA090281EA090600
:10BA500032434FF002021EBF414083EA0C0353EA17
:10BA600001030FD0D5E9421383EA090281EA0906EE
:10BA700032434FF003021EBF414083EA0C0353EAF6
:10BA800001035FD10199002701EBC20341F83200A5
:10BA9000C3F804C0501F08AEADF810007AE700BF2D
:10BAA000E068013068D1BBF1000F6DD04FF0000AA3
:10BAB0004FF0000902E00020814608AE28463146DA
:10BAC0000022FEF7D1F9002843D19DF820001F285D
:10BAD00025D0404538D10B980028EFD0411C33D0F9
:10BAE000DBE9001700EB090306A85246B847069F9A
:10BAF000A7B307984FF0000A4845DCD30B9EA0EB94
:10BB0000090086424FF00000D6D80A9907EB0900D9
:10BB10003246FDF765FF06EB0900BA46CCE7C4E9FB
:10BB200002A994F80080DDF800A001204FF0FF3951
:10BB30002071B8F1FE0F3FF44DAF1DE00027ADF8C6
:10BB4000100027E70020A6E71E24BAF1000F09D154
:10BB50000EE00446BAF1000F04D109E02E24BAF138
:10BB6000000F05D0DBE9001708A852460023B847AC
:10BB7000E0B213B0BDE8F08FDDE90401C4E90801CB
:10BB8000039CF5E70446F3E72D24F1E77047000036
:10BB9000704700004EF68850CEF20000026843F66F
:10BBA000000142F47002C4F202010260D1F8A42044
:10BBB00042F03002C1F8A4200A6842F001020A6093
:10BBC0000A68920709D40A6892075CBF0A685FEAAC
:10BBD000827202D40A689207F2D58A6822F00302C0
:10BBE0008A6000BF8A6812F00C0F0BD08A6812F0CE
:10BBF0000C0F07D08A6812F00C0F03D08A6812F07D
:10BC00000C0FEFD14FF080428A600A684FF6FF7345
:10BC1000CFF6F2631A400A6040F2C1724A60D1F86E
:10BC2000A02002F4A042C1F8A020D1F8A02042F444
:10BC30007022C1F8A0204FF41F02CA60D1F8A420DE
:10BC400022F03002C1F8A4204FF0006140F8801CBF
:10BC500070470000182043F60841C4F20200C4F205
:10BC60000001022202610A68920709D40A68920759
:10BC70005CBF0A685FEA827202D40A689207F2D552
:10BC80002A224A600A68120609D50A68120644BFC9
:10BC90000A685FEA026202D50A681206F2D402223A
:10BCA00002600A68920709D40A6892075CBF0A68B2
:10BCB0005FEA827202D40A689207F2D500224A60D3
:10BCC0000A6812060AD50A68120644BF0A685FEAC3
:10BCD000026203D50A681206F2D400BF0A6892070E
:10BCE00009D40A6892075CBF0A685FEA827202D4CC
:10BCF0000A689207F2D512224A600A68120609D52C
:10BD00000A68120644BF0A685FEA026202D50A683E
:10BD10001206F2D40A68920709D40A6892075CBF37
:10BD20000A685FEA827202D40A689207F2D5012299
:10BD30004A600A68120609D50A68120644BF0A68F2
:10BD40005FEA026202D50A681206F2D40A68920714
:10BD500009D40A6892075CBF0A685FEA827202D45B
:10BD60000A689207F2D52D224A600A68120609D5A0
:10BD70000A68120644BF0A685FEA026202D50A68CE
:10BD80001206F2D4022202610A68920709D40A68F4
:10BD900092075CBF0A685FEA827202D40A6892075F
:10BDA000F2D52B224A600A68120609D50A681206E3
:10BDB00044BF0A685FEA026202D50A681206F2D43A
:10BDC000022202600A68920709D40A6892075CBFDF
:10BDD0000A685FEA827202D40A689207F2D50022EA
:10BDE0004A600A68120609D50A68120644BF0A6842
:10BDF0005FEA026202D50A681206F2D40A68920764
:10BE000009D40A6892075CBF0A685FEA827202D4AA
:10BE10000A689207F2D552224A600A68120609D5CA
:10BE20000A68120644BF0A685FEA026202D50A681D
:10BE30001206F2D40A68920709D40A6892075CBF16
:10BE40000A685FEA827202D40A689207F2D5002279
:10BE50004A600A68120609D50A68120644BF0A68D1
:10BE60005FEA026202D50A681206F2D40A689207F3
:10BE700009D40A6892075CBF0A685FEA827202D43A
:10BE80000A689207F2D59D224A600A68120609D50F
:10BE90000A68120644BF0A685FEA026202D50A68AD
:10BEA0001206F2D4022202610A68920709D40A68D3
:10BEB00092075CBF0A685FEA827202D40A6892073E
:10BEC000F2D52C224A600A68120609D50A681206C1
:10BED00044BF0A685FEA026202D50A681206F2D419
:10BEE00002210160704700002DE9F04F83B0171A5E
:10BEF000B2EB000C0293009218BF4FF0FF3C002FF2
:10BF0000BA464FF48E7242F6E80348BFC7F1000A02
:10BF10004FF0010E012F01FB02F94FF0000705461B
:10BF20004FF00006C2F20003A8BFF446CDF804C0EB
:10BF300008E000BF0136002FB2B20CBF5744654481
:10BF4000924513D3AAB29408462C98BF4B29F1D836
:10BF50004A44D40802F0070B13F804800EFA0BF2DF
:10BF6000DDF804C042EA08021A55E3E7029A002706
:10BF7000551AB2EB010918BF4FF0FF39002DAE463C
:10BF800048BFC5F1000E012D4FEA900B0D464FF052
:10BF900000084FF001064FF00102A8BF914609E0EA
:10BFA00008F10108002F1FFA88F20CBF77444D44B6
:10BFB000964518D3BBF1460FF2D8AAB24B2AEFD858
:10BFC0004FF48E7302FB030242F6E803D408C2F278
:10BFD000000302F0070213F804C006FA02F242EA74
:10BFE0000C021A55DCE7029B4FF48E72DDF804B0A8
:10BFF00003FB02F800274FF0010C002508E000BF0A
:10C000000135002FAAB20CBF57445844924514D3AF
:10C0100082B29408462CF3D8029B4B2BF0D84244B2
:10C0200042F6E803D408C2F2000302F007021E5DE4
:10C030000CFA02F232431A55E2E7DDF800A042F6AC
:10C04000E80500204FEA9A034FF48E7C4FF0010878
:10C050000022C2F2000507E00132002894B20CBFB2
:10C0600070444944A6450FD3462BF5D88CB24B2CCF
:10C07000F2D804FB0CA6F40806F007062F5D08FAB8
:10C0800006F63E432E55E7E703B0BDE8F08F00000B
:10C090002DE9F04F82B0203AD7B27F0057FA82F2F2
:10C0A00043F23007C0F6020742F6E80601938446E1
:10C0B00007EB820E00220123C2F200068146CDF872
:10C0C00000E000BF8CB24B2C09F1010540D9ACB2A5
:10C0D000A4EB0C04062C00F05F8109F10204A4B269
:10C0E000A4EB0C04062C00F0578109F10304A4B260
:10C0F000A4EB0C04062C00F04F8109F10404A4B257
:10C10000A4EB0C04062C00F0478109F10504A4B24D
:10C11000A4EB0C04062C00F03F8109F10604A4B244
:10C12000A4EB0C04062C00F0378109F10704A4B23B
:10C13000A4EB0C04062C00F02F8109F108091FFA6A
:10C1400089F4A4EB0C04062C00F0268126E100BF44
:10C150001EF802A04FF48E705FEACA7701FB00FB65
:10C1600019D01FFA89F7BF08462F14D809EB0B071F
:10C17000BCB2E40807F00707B046365D03FA07F7DC
:10C18000019846EA0703000608BF26EA0703464669
:10C1900008F804300123AFB2A7EB0C00062800F02A
:10C1A000FB805FEA8A7417D5BC08462C14D805EBCF
:10C1B0000B04A5B20198ED0804F00704775D5FEA6F
:10C1C000006E03FA04F4DDF800E047EA040808BF53
:10C1D00027EA040806F8058009F10205AFB2A7EBCB
:10C1E0000C04062C00F0D8805FEA4A7418D5BF080A
:10C1F000462F15D805EB0B07BDB24FEAD50E07F059
:10C20000070716F80E8003FA07F7019848EA0705B2
:10C21000040608BF28EA070506F80E50DDF800E01E
:10C2200009F10305AFB2A7EB0C04062C00F0B480B3
:10C230005FEA0A7418D5BF08462F15D805EB0B071F
:10C24000BDB24FEAD50E07F0070716F80E8003FAC5
:10C2500007F7019848EA0705040608BF28EA07051A
:10C2600006F80E50DDF800E009F10405AFB2A7EBC7
:10C270000C04062C00F090805FEACA6418D5BF0851
:10C28000462F15D805EB0B07BDB24FEAD50E07F0C8
:10C29000070716F80E8003FA07F7019848EA070522
:10C2A000040608BF28EA070506F80E50DDF800E08E
:10C2B00009F10505AFB2A7EB0C04062C6CD05FEAC0
:10C2C0008A6418D5BF08462F15D805EB0B07BDB2F9
:10C2D0004FEAD50E07F0070716F80E8003FA07F7A6
:10C2E000019848EA0705040608BF28EA070506F88A
:10C2F0000E50DDF800E009F10605AFB2A7EB0C0423
:10C30000062C49D05FEA4A6418D5BF08462F15D8D5
:10C3100005EB0B07BDB24FEAD50E07F0070716F87D
:10C320000E8003FA07F7019848EA0705040608BFDC
:10C3300028EA070506F80E50DDF800E009F10704C9
:10C34000A5B2A5EB0C07062F26D04FFA8AF7B7F156
:10C35000FF3F18DCAF08462F15D804EB0B07BDB222
:10C360004FEAD50E07F0070716F80E8003FA07F715
:10C37000019848EA0705040608BF28EA070506F8F9
:10C380000E50DDF800E009F108091FFA89F7A7EB64
:10C390000C07062F02D100BF0131E14601320C2A01
:10C3A0007FF490AE02B0BDE8F08F00000000000006
:10C3B0002DE9F04F81B02DED028B84B01020C4F236
:10C3C00001000168C90700F014876FF0010141F610
:10C3D00098060160C2F2000630684CF6CD47013085
:10C3E00030603068CCF6CC47784343F233384FEABC
:10C3F0003010C0F23338404505D843F29430C2F2D1
:10C400000000012101703068000705D143F295302A
:10C41000C2F200000121017043F29C3AC2F2000A0C
:10C42000DAF80800456A95F83801002800F0EC8039
:10C4300042F25469C2F2000999F80F0201280CD1A6
:10C4400095F83901012840F00B810CF0F1FE002035
:10C4500085F83901002089F80F0299F80E020128A9
:10C460000FD1DAF80800446A94F83901012840F045
:10C470002B810CF0DDFE002084F83901002089F8C2
:10C480000E02D9F83C020130C9F83C0299F81102B9
:10C49000002840F01D8242F25464C2F2000420469B
:10C4A00007F0C6FB80B1207818B9D4F83C02C4F874
:10C4B000200294F80412012084F81102012984F862
:10C4C000100208BF84F8120204F13C0007F0B0FB30
:10C4D00088B194F83C0018B9D4F83C02C4F824029E
:10C4E00094F80512012084F81102012984F8100241
:10C4F00008BF84F8120204F1780007F099FB88B1B4
:10C5000094F8780018B9D4F83C02C4F8280294F8DA
:10C510000612012084F81102012984F8100208BFD4
:10C5200084F8120204F1B40007F082FB88B194F899
:10C53000B40018B9D4F83C02C4F82C0294F80712DD
:10C54000012084F81102012984F8100208BF84F840
:10C55000120204F1F00007F06BFB88B194F8F000D0
:10C5600018B9D4F83C02C4F8300294F8081201203B
:10C5700084F81102012984F8100208BF84F812021D
:10C5800004F5967007F054FB88B194F82C0118B9A3
:10C59000D4F83C02C4F8340294F80912012084F85B
:10C5A0001102012984F8100208BF84F8120204F570
:10C5B000B47007F03DFB88B194F8680118B9D4F85D
:10C5C0003C02C4F8380294F80A12012084F81102DF
:10C5D000012984F8100208BF84F81202D4F8AC01D3
:10C5E000B4F8B01100690840401A18BF012084F85F
:10C5F000B40194F8A40194F8B411012940F0978093
:10C600000021A4F8B61127E141F61426C2F2000673
:10C6100041F2FC713078C2F200010F78012808BFA6
:10C62000FE2F00F091806D2F10D841F61022B1F846
:10C630000100C2F20002177044BA41F61222C2F29F
:10C640000002B4F5006F148040F261850020307064
:10C6500040F27A00C2F200000321018000F086BDA2
:10C6600041F66420C2F2000090F856109AF80C03CC
:10C67000012940F0928003287FF4ECAE95F8350153
:10C6800000283FF4EAAE002085F8350199F8B8019A
:10C690000138C1B202293FF6E0AEC00040F20D51B0
:10C6A000C0B2C0F2020121FA00F005F18004454653
:10C6B0005FFA80F809F5DC7120464246FCF754FB2E
:10C6C0000AF10400822190E041F66420C2F20000E9
:10C6D00090F856109AF80C03012940F08C8003283A
:10C6E0007FF4CCAE94F8350100283FF4CAAE0020A8
:10C6F00084F8350199F8BD010138C1B202293FF62D
:10C70000C0AEC00040F20D51C0B2C0F2020121FA29
:10C7100000F0803445465FFA80F809F2BD112046EA
:10C720004246FDF75DF90AF1040082218AE0B4F87F
:10C73000B611B4F8A621914280F08A80B4F8B611FF
:10C740000131A4F8B61189E040F27A0641F61220D0
:10C75000C2F20006C2F2000032880488A24280F0D1
:10C76000058540F6F87802F13F07C2F20008A742BB
:10C7700008EB020040F2DE84A21A0131FDF730F925
:10C7800041F61020C2F200000078ADF806408DF8A6
:10C790000400CDF8088000F0E3BC03287FF45AAE13
:10C7A00095F8360100283FF458AE002085F8360190
:10C7B00099F8B8010138C1B202293FF64EAEC00067
:10C7C00040F20D51C0B2C0F2020121FA00F005F1B1
:10C7D000800445465FFA80F809F5DC712046424640
:10C7E000FCF7C2FA0AF10400832122464346A84618
:10C7F0000CF086FB2EE603287FF440AE94F8360159
:10C8000000283FF43EAE002084F8360199F8BD01BF
:10C810000138C1B202293FF634AEC00040F20D51DA
:10C82000C0B2C0F2020121FA00F0803445465FFA3E
:10C8300080F809F2BD1120464246FDF7D1F80AF111
:10C840000400832122464346A8460CF059FB15E616
:10C850000021A4F8B611012184F8A41194F8A411C0
:10C86000884207D194F8AA01022812D3013884F82B
:10C87000AA0117E094F8A911012916D190B994F8EA
:10C88000A40101280ED1B4F8A60184F8AA01002061
:10C890000DE0012806D1012084F8A501002084F8CC
:10C8A000AA0106E094F8A80112E094F8A40184F823
:10C8B000A50194F8A80101280AD194F80B120120CF
:10C8C00084F81102012984F8100208BF84F81202CA
:10C8D00099F8110247F6E45541F64C220128C2F2BC
:10C8E0000005C2F2000204D100202860106089F81F
:10C8F000110299F81002012840F09C8199F8120267
:10C9000001280BD1002089F8120289F8B90189F8B1
:10C91000BE01012089F80E0289F80F0299F81E1253
:10C9200000200029CDF80700019000F08780C24662
:10C93000042901F0030C80F03D83002141F69806A4
:10C940004CF6CD47D04643F29C3A47F6E455BCF14D
:10C95000000FC2F20006CCF6CC47C2F2000AC2F2C7
:10C9600000055DD009EB410191F8143291F81522D0
:10C97000C3EB031019F82000A0B9C2EB021019F89C
:10C98000200078B909F5087050F8237050F822009B
:10C9900087424CF6CD47CCF6CC4738BF1A4601A8A3
:10C9A00001238354BCF1010F3AD091F8163291F86B
:10C9B0001722C3EB031019F82000A0B9C2EB021034
:10C9C00019F8200078B909F5087050F8237050F86C
:10C9D000220087424CF6CD47CCF6CC4738BF1A46EA
:10C9E00001A801238354BCF1020F19D091F8182239
:10C9F00091F81902C2EB021119F8211081B9C0EBAC
:10CA0000001119F8211059B909F5087151F82230AF
:10CA100051F820108B4238BF104601A901220A5458
:10CA20009DF804000021C007C9F8D011C9F8C11150
:10CA3000C9F8C511C9F8C91108D020E0C9F8D0015A
:10CA4000C9F8C101C9F8C501C9F8C90199F80000C0
:10CA5000A8B999F81500012811D199F8D40199F8CD
:10CA6000D51107F0C9FC99F8D60199F8D71107F04C
:10CA7000C3FC99F8D80199F8D91107F0BDFC9DF8CD
:10CA80000500C0B999F83C00A8B999F851000128EF
:10CA900011D199F8DA0199F8DB1107F0ADFC99F89A
:10CAA000DC0199F8DD1107F0A7FC99F8DE0199F88F
:10CAB000DF1107F0A1FC9DF80600C0B999F87800D5
:10CAC000A8B999F88D00012811D199F8E00199F8D9
:10CAD000E11107F091FC99F8E20199F8E31107F0F0
:10CAE0008BFC99F8E40199F8E51107F085FC9DF8B5
:10CAF0000700C0B999F8B400A8B999F8C90001288D
:10CB000011D199F8E60199F8E71107F075FC99F849
:10CB1000E80199F8E91107F06FFC99F8EA0199F832
:10CB2000EB1107F069FC9DF80800C0B999F8F00016
:10CB3000A8B999F80501012811D199F8EC0199F8E3
:10CB4000ED1107F059FC99F8EE0199F8EF1107F093
:10CB500053FC99F8F00199F8F11107F04DFC9DF89C
:10CB60000900C0B999F82C01A8B999F84101012828
:10CB700011D199F8F20199F8F31107F03DFC99F8F9
:10CB8000F40199F8F51107F037FC99F8F60199F8D6
:10CB9000F71107F031FC9DF80A00C0B999F8680157
:10CBA000A8B999F87D01012811D199F8F80199F8EF
:10CBB000F91107F021FC99F8FA0199F8FB1107F037
:10CBC0001BFC99F8FC0199F8FD1107F015FC99F888
:10CBD000A501A8B999F8A801012811D199F8FE0179
:10CBE00099F8FF1107F008FC99F8000299F8011272
:10CBF00007F002FC99F8020299F8031207F0FCFB17
:10CC000099F80C0299F80D1207F0F6FBDAF8080013
:10CC1000446A94F83901012840F094810CF008FB33
:10CC2000002084F8390141F64C22C2F200020020B3
:10CC300089F81002106843F68001C0F201018842B1
:10CC4000C0F06181306878434FEA3010404500F20F
:10CC50005D8141F66420C2F2000090F8580001287E
:10CC600040F0548199F82000012845D199ED018ABE
:10CC700099ED030AB4EE408AF1EE10FA1CDDD9F802
:10CC800016009FEDD21A02EE100A32EE011AB4EE2F
:10CC9000418AF1EE10FA0FDA10EE100A0DF088FE5C
:10CCA0009FEDCB0B53EC102B0DF086FB0DF052FBE0
:10CCB00000EE100AC9F80C00B4EE408AF1EE10FA4A
:10CCC0001ADAD9F816009FEDC41A02EE100A32EEF5
:10CCD000011AB4EE418AF1EE10FA0DDD10EE100AE1
:10CCE0000DF066FE9FEDBE0B53EC102B0DF064FBB8
:10CCF0000DF030FBC9F80C0099F85C00012845D113
:10CD000099ED108A99ED120AB4EE408AF1EE10FA0C
:10CD10001CDDD9F852009FEDAD1A02EE100A32EE7A
:10CD2000011AB4EE418AF1EE10FA0FDA10EE100A91
:10CD30000DF03EFE9FEDA60B53EC102B0DF03CFBCF
:10CD40000DF008FB00EE100AC9F84800B4EE408A66
:10CD5000F1EE10FA1ADAD9F852009FED9F1A02EE9E
:10CD6000100A32EE011AB4EE418AF1EE10FA0DDD2E
:10CD700010EE100A0DF01CFE9FED990B53EC102BDA
:10CD80000DF01AFB0DF0E6FAC9F8480099F8980082
:10CD9000012845D199ED1F8A99ED210AB4EE408A08
:10CDA000F1EE10FA1CDDD9F88E009FED881A02EE24
:10CDB000100A32EE011AB4EE418AF1EE10FA0FDADF
:10CDC00010EE100A0DF0F4FD9FED810B53EC102BCB
:10CDD0000DF0F2FA0DF0BEFA00EE100AC9F8840068
:10CDE000B4EE408AF1EE10FA1ADAD9F88E009FED0F
:10CDF0007A1A02EE100A32EE011AB4EE418AF1EE0E
:10CE000010FA0DDD10EE100A0DF0D2FD9FED740B3F
:10CE100053EC102B0DF0D0FA0DF09CFAC9F88400F9
:10CE200099F8D400012845D199ED2E8A99ED300A60
:10CE3000B4EE408AF1EE10FA1CDDD9F8CA009FED7D
:10CE4000631A02EE100A32EE011AB4EE418AF1EED4
:10CE500010FA0FDA10EE100A0DF0AAFD9FED5C0B30
:10CE600053EC102B0DF0A8FA0DF074FA00EE100A36
:10CE7000C9F8C000B4EE408AF1EE10FA1ADAD9F817
:10CE8000CA009FEDE71A02EE100A32EE011AB4EE64
:10CE9000418AF1EE10FA0DDD10EE100A0DF088FD5A
:10CEA0009FEDDD0B53EC102B0DF086FA0DF052FACE
:10CEB000C9F8C00041F6E420C2F20000017829BBA5
:10CEC00047F6DC51C2F200010A68B2F5966FC0F075
:10CED0009E8143F29931C2F200010A78B2B9D9F8C1
:10CEE0000C20D9F84830D9F88470D9F8C060C9F856
:10CEF00016200122C9F85230C9F88E70C9F8CA60EC
:10CF000002700A7002E010680130106047F6E050CD
:10CF1000C2F200000168002900F06B8129680068F6
:10CF2000814208D2286800210130286042F2CC50AA
:10CF3000C2F2000004E042F2CC50C2F20000012133
:10CF4000017056E141F66420C2F2000090F85610DC
:10CF50009AF80C03012940F0A78041F64C220328DF
:10CF6000C2F200027FF463AE94F8350100283FF46A
:10CF700061AE002084F8350199F8C0010138C1B2D2
:10CF800002293FF657AEC00040F20D51C0B2C0F2C8
:10CF9000020121FA00F08034AB4645465FFA80F882
:10CFA00009F5E07120464246FBF7DEFE0AF1040077
:10CFB0008221A5E009F5057201F0FC03002109F5C5
:10CFC00008750DF1040E4FF0010813E00000C8428F
:10CFD0007B14AE47E17A743F0000C8C200BF00BFB7
:10CFE0007B14AE47E17A74BF04318B4202F1080230
:10CFF0003FF4A4AC10785478C0EB001719F82770F0
:10D0000077B9C4EB041719F827704FB955F8207099
:10D0100055F824B05F4538BF04460EF8048000BFC1
:10D020009078D478C0EB001719F8277077B9C4EB63
:10D03000041719F827704FB955F8207055F8246077
:10D04000B74238BF04460EF8048000BF1079547907
:10D05000C0EB001619F8266076B9C4EB041619F86F
:10D0600026604EB955F8206055F82470BE4238BF8E
:10D0700004460EF8048000BF9079D479C0EB001606
:10D0800019F82660002EAFD1C4EB041619F82660FB
:10D09000002EA9D155F8206055F82470BE4238BF43
:10D0A00004460EF804809FE741F64C220328C2F2A2
:10D0B00000027FF4BCAD94F8360100283FF4BAAD0D
:10D0C000002084F8360199F8C0010138C1B2022964
:10D0D0003FF6B0ADC00040F20D51C0B2C0F2020147
:10D0E00021FA00F08034AB4645465FFA80F809F536
:10D0F000E07120464246FBF737FE0AF10400832127
:10D1000022464346A8465D460BF0FAFE8BE53E2CD0
:10D1100016D340F6F8700331C2F200003D223D24E0
:10D12000FCF75EFC40F27A00C2F2000004800120AD
:10D1300030701BE001313F22FCF752FC378015E0D4
:10D1400000285CD0CE1C40F6F870C2F200003146D8
:10D150002246FCF745FC8DF80470ADF806400296B7
:10D160000020ADF80C0001A805F0FCF9012085F8BD
:10D170003801DAF804009AF89C11002300EB411200
:10D180004021CAE96C51DAF8A411CAF8B83101F1AA
:10D190003F03B3FBF1F3D2F8107B594361F312075D
:10D1A000C2F8107BD2F8107B02F5306163F3DC47E4
:10D1B000C2F8107B35B1DAF81C23012A04BFDAF873
:10D1C000B0214A619AF89F21012A0AD1D0F80808B3
:10D1D0000A68C0054FF0805058BF4FF00050104310
:10D1E0000860086840F080600860086840F000400F
:10D1F000086004B0BDEC028B01B0BDE8F08F0020E8
:10D200008DF80470CDF80A00CDF80600ABE7086889
:10D21000013008607AE600BF7B14AE47E17A74BF44
:10D220000000C8C2FEE700002DE9F0471C20FBF714
:10D23000FAF842F2D05543F22001C2F20005C0F6DE
:10D240000201072401F10806A8601C20C5E900645A
:10D25000FBF7E9F868611C20C5E90364FBF7E3F814
:10D2600028621C20C5E90664FBF7DDF8E8621C2093
:10D27000C5E90964FBF7D7F8A8631C20C5E90C646D
:10D28000FBF7D1F868641C20C5E90F64FBF7CBF805
:10D2900028651C20C5E91264FBF7C5F8E8651C2069
:10D2A000C5E91564FBF7BFF8A8661C20C5E918643A
:10D2B000FBF7B9F868671C20C5E91B64FBF7B3F8F6
:10D2C00048F20008C5F8800043F2A170C0F60008DB
:10D2D000C0F6010029464246C5E91E64FBF750FA34
:10D2E00042F25464C2F200044FF0010A0026782092
:10D2F000C82184F800A066806660A660E66084F8B5
:10D3000010A0608284F814A06675C4E90A6684F8E7
:10D310003060668684F8346084F83510A66384F83B
:10D320003CA0E68726646664A66484F84CA0A4F852
:10D330004E0084F850A084F85160C4E9196684F85E
:10D340006C60A4F86E6084F8706084F87110666791
:10D3500084F878A0A4F87A60E667C4F88060C4F81E
:10D36000846084F888A0A4F88A0084F88CA084F8EB
:10D370008D60C4E9286684F8A860A4F8AA6084F8DF
:10D38000AC6084F8AD10C4F8B06084F8B4A0A4F820
:10D39000B660C4F8B860C4F8BC60C4F8C06084F873
:10D3A000C4A0A4F8C60084F8C8A084F8C960C4E981
:10D3B000376684F8E460A4F8E66084F8E86084F8EE
:10D3C000E910C4F8EC6084F8F0A0A4F8F260C4F8A6
:10D3D000F460C4F8F860C4F8FC6084F800A1A4F814
:10D3E000020184F804A184F80561C4E9466684F862
:10D3F0002061A4F8226184F8246184F82511C4F81E
:10D40000286184F82CA1A4F82E61C4F83061C4F816
:10D410003461C4F8386184F83CA1A4F83E0184F872
:10D4200040A184F84161C4E9556684F85C61A4F8C0
:10D430005E6184F8606184F86111C4F8646184F805
:10D4400068A1A4F86A61C4F86C61C4F87061C4F89A
:10D45000746184F878A1A4F87A0184F87CA184F836
:10D460007D61C4E9646684F89861A4F89A6184F8DF
:10D470009C6184F89D11C4F8A06184F8A4A184F88B
:10D48000A5A1A4F8A601022084F8A861A4F8A961C6
:10D4900084F8B461A4F8B66184F8B801032084F874
:10D4A000BD0104F5EA703021C4F8B96184F8BE61A9
:10D4B000C4F8D06184F8CC61C4E97066C4F8C8616E
:10D4C00084F8C0A1FBF7A4FC8DA004F021FEA4F811
:10D4D0000C6284F80E6284F80F6284F8106284F89B
:10D4E000116284F8126284F81362A9686A6F0025D9
:10D4F0004FF01E0C41F61E6EBE20C4F27A654FF44A
:10D500008059131D0F1D84F81E62C4E98866C4E9A2
:10D510008A66C4E98C66C4F83862C4F83C62C4E91F
:10D520000A1284F8256084F823C0A4F821E084F866
:10D530002400C4F81A60C4F81650A4F81E9084F8A9
:10D540002060E56084F835006675C4E9197302F15E
:10D55000080301F1080784F8616084F85FC0A4F84B
:10D560005DE084F86000C4F85660C4F85250A4F836
:10D570005A9084F85C60A56484F8710084F8516066
:10D58000C4E9287302F10C0301F10C0784F89D60D3
:10D5900084F89BC0A4F899E084F89C00C4F89260D9
:10D5A000C4F88E50A4F8969084F89860C4F884501B
:10D5B00084F8AD0084F88D60C4E9377302F110037C
:10D5C00001F1100784F8D96084F8D7C0A4F8D5E039
:10D5D00084F8D800C4F8CE60C4F8CA50A4F8D29039
:10D5E00084F8D460C4F8C05084F8E90084F8C960B5
:10D5F000C4E9467302F1140301F11407183218311B
:10D6000084F8156184F813C1A4F811E184F81401B9
:10D61000C4F80A61C4F80651A4F80E9184F81061A8
:10D62000C4F8FC5084F8250184F80561C4E95573F9
:10D6300084F8516184F84FC1A4F84DE184F8500199
:10D64000C4F84661C4F84251A4F84A9184F84C6188
:10D65000C4F8385184F8610184F84161C4E9641266
:10D6600084F88D6184F88BC1A4F889E184F88C0179
:10D67000C4F88261C4F87E51A4F8869184F8886168
:10D68000C4F8745184F89D0140F60000C4F2020011
:10D690004FF4806184F87D61C4E96B0142F6940027
:10D6A00047F6F455C2F200004D21C2F2000584F89D
:10D6B000A8A1A4F8A9A184F8A861A0F84E10284652
:10D6C0004FF45071FBF7A4FB43F6596085F80463EF
:10D6D000C5F80663C5F80A63C5F80E63C5F812639A
:10D6E000C5F81663C5F8196385F820A3C0F60100D4
:10D6F0002946424685F82163BDE8F047FBF740B86C
:10D7000001010101010101041D1B0619141A08CDB4
:10D710000000000000000000000000000000000009
:10D7200000000000000000000000000000000000F9
:10D730002DE9F04381B02DED048B42F6E804C2F2EE
:10D740000004204640F68A21FBF762FB41F2F8789C
:10D75000C2F20008B8F800609FED629A9FED628AFD
:10D7600000274FF48E79012504E000BF0137B7F59B
:10D770008E7F1ED0F01900EE100AB8EE400A20EE9F
:10D78000090A0CF02DFC20EE080A30EE080ABDEE66
:10D79000C00A10EE100A4B28E8D800FB097081B2CD
:10D7A000C90800F00700625C05FA00F010436054FD
:10D7B000DCE79FED4E9A473600274FF48E7901251E
:10D7C00004E000BF0137B7F58E7F1ED0F01900EEE0
:10D7D000100AB8EE400A20EE090A0CF001FC20EE17
:10D7E000080A30EE080ABDEEC00A10EE100A4B28F7
:10D7F000E8D800FB097081B2C90800F00700625C3C
:10D8000005FA00F010436054DCE773201C214D2220
:10D810004FF6FF73FEF73CFC79201C2165224FF682
:10D82000FF73FEF735FC7F201C216F224FF6FF733C
:10D83000FEF72EFC85201C2177224FF6FF73FEF7A2
:10D8400027FC8B201C2170224FF6FF73FEF720FC73
:10D8500091201C2161224FF6FF73FEF719FC9720DF
:10D860001C2164224FF6FF73FEF712FC9D201C2141
:10D8700056224FF6FF73FEF70BFCA3201C21332228
:10D880004FF6FF73FEF704FC7F20282130224FF66D
:10D89000FF73FEF7FDFB852028212E224FF6FF7334
:10D8A000FEF7F6FB8B20282131224FF6FF73FEF79F
:10D8B000EFFB912028212E224FF6FF73FEF7E8FBA5
:10D8C0009720282133224FF6FF73FEF7E1FBB8F8CB
:10D8D00000000130A8F80000BDEC048B01B0BDE8E9
:10D8E000F08300BFA525353D00001842A525B53CB5
:10D8F000032912D0022902D0012940F0908041F67C
:10D900005021C2F200010978002940F08880417A54
:10D9100081F0010242724177704741F65021C2F214
:10D920000001097800297AD1417F012913D142F2FF
:10D930000C3CC2F2000C9CF880203AB1531E190630
:10D940008CF880301CBF911E8CF88110012141722F
:10D95000002141777047407A012818BF704742F292
:10D960005460C2F20000022101704268C0F81A201F
:10D970004268C0F81620002280F82020427580F806
:10D980003C10036CC0F85630036C80F85C20C0F883
:10D99000523080F8512080F87810C36FC0F8923070
:10D9A000C36F80F89820C0F88E3080F88D2080F802
:10D9B000B410D0F8B830C0F8CE30D0F8B83080F815
:10D9C000D420C0F8CA3080F8C92080F8F010D0F810
:10D9D000F430C0F80A31D0F8F43080F81021C0F8E3
:10D9E000063180F8052180F82C11D0F83031C0F8CC
:10D9F0004631D0F8303180F84C21C0F8423180F8FF
:10DA0000412180F86811D0F86C11C0F88211D0F86B
:10DA10006C1180F88821C0F87E1180F87D21704754
:10DA200003291DD0022906D0012928D101885F29A8
:10DA300025D8053104E00188052938BF704705392C
:10DA40008AB20180C16900EE102A41610021B8EE5E
:10DA5000400A0162012180ED060A80F82810704713
:10DA600042F20C30C2F2000090F8801039B14A1E28
:10DA7000130680F880201CBF023980F8811070479F
:10DA8000032918BF704742F20C30C2F2000090F830
:10DA9000801039B14A1E130680F880201CBF02395D
:10DAA00080F8811080B5FAF783FC48F20101C3F6D3
:10DAB000FF71A0FB0112510B01EBC131401A41F281
:10DAC000F871C2F200010880BDE880407047000094
:10DAD0002DE9F04F85B08046007A012812D1B8F8C0
